:020000040800F2
:100000002804002001010008F90D0008FB0D00087C
:10001000FF0D0008030E0008070E00080000000096
:100020000000000000000000000000000B0E0008AF
:100030000D0E0008000000000F0E0008110E000851
:100040001B0100081B0100081B0100081B01000820
:100050001B0100081B0100081B0100081B01000810
:100060001B0100081B0100081B0100081B01000800
:100070001B0100081B0100081B0100081B010008F0
:100080001B0100081B0100081B0100081B010008E0
:100090001B0100081B0100081B0100081B010008D0
:1000A0001B0100081B0100081B0100081B010008C0
:1000B0001B0100081B0100081B0100081B010008B0
:1000C0001B0100081B0100081B0100081B010008A0
:1000D0001B0100081B0100081B0100081B01000890
:1000E0001B0100081B0100081B010008DFF80CD0F1
:1000F00001F06EF900480047150E000828040020A2
:100100000648804706480047FEE7FEE7FEE7FEE7B1
:10011000FEE7FEE7FEE7FEE7FEE7FEE70102000876
:10012000ED0000080CB500200190009069480068BF
:1001300040F480306749086000BF6648006800F4FA
:10014000003000900198401C0190009818B9019867
:10015000B0F5A06FF1D15F48006810F4003F02D005
:100160000120009001E0002000900098012842D179
:100170005948006840F01000574908600846006878
:1001800020F0030008600846006840F002000860A4
:10019000504840684F4948600846406848600846F3
:1001A000406840F4806048600846406820F47C1055
:1001B00048600846406840F4E81048600846006817
:1001C00040F08070086000BF4248006810F0007F77
:1001D000FAD04048406820F003003E494860084695
:1001E000406840F00200486000BF3A48406800F0B4
:1001F0000C000828F9D10CBD10B5FFF793FF10BD16
:1002000010B53448006840F00100324908600846E3
:100210004068324908402F49486008460068304924
:1002200008402C4908600846006820F480200860D7
:100230000846406820F4FE0048604FF41F008860C4
:10024000FFF7DAFF10BD10B5002100200022214B7E
:100250005B6803F00C0121B1042906D0082928D1DC
:1002600007E0204B204C236027E01E4B1E4C2360F0
:1002700023E0184B5B6803F47010164B5B6803F4C3
:100280008032022303EB904022B9184B4343164CB3
:1002900023600DE00F4B5B6813F4003F04D0134B59
:1002A0004343114C236003E00E4B43430E4C236049
:1002B00003E00C4B0C4C236000BF00BF054B5B6898
:1002C000C3F303130A4CE15C074B1B68CB40064C9D
:1002D000236010BD00100240002002400000FFF823
:1002E000FFFFF6FE00127A000000002000093D002A
:1002F0000400002010B50446CA48844208D10121F8
:10030000042000F027FB0021042000F023FB46E03E
:10031000C548844208D10121082000F01BFB0021C0
:10032000082000F017FB3AE0C048844208D10121C0
:10033000102000F00FFB0021102000F00BFB2EE03E
:10034000BB48844208D10121202000F003FB00219A
:10035000202000F0FFFA22E0B648844208D10121B3
:10036000402000F0F7FA0021402000F0F3FA16E0F8
:10037000B148844208D10121802000F0EBFA00212D
:10038000802000F0E7FA0AE0AC48844207D101215E
:10039000801500F0DFFA0021A01500F0DBFA10BD97
:1003A00010B50121084600F0D5FA0021012000F027
:1003B000D1FA10BD2DE9F0410246002500260020AB
:1003C00000230024002791F803C00CF00F0591F8DA
:1003D00003C01CF0100F03D091F802C04CEA0505D1
:1003E00091F800C0BCF1000F31D0146800202BE060
:1003F0004FF0010C0CFA00F3B1F800C00CEA030650
:100400009E4220D183004FF00F0C0CFA03F7BC433F
:1004100005FA03FC4CEA040491F803C0BCF1280F70
:1004200006D14FF0010C0CFA00FCC2F814C00AE02F
:1004300091F803C0BCF1480F05D14FF0010C0CFA44
:1004400000FCC2F810C0401C0828D1D31460B1F8D9
:1004500000C0BCF1FF0F34DD546800202EE000F135
:10046000080C4FF0010808FA0CF3B1F800C00CEAD0
:1004700003069E4221D183004FF00F0C0CFA03F7C4
:10048000BC4305FA03FC4CEA040491F803C0BCF138
:10049000280F05D100F1080C08FA0CF8C2F81480F6
:1004A00091F803C0BCF1480F07D100F1080C4FF0E0
:1004B000010808FA0CF8C2F81080401C0828CED3B6
:1004C0005460BDE8F0814FF6FF7101800221817018
:1004D0000421C17070470246002093680B4201D08E
:1004E000012000E0002070470146886880B2704714
:1004F00002460020D3680B4201D0012000E000201A
:1005000070470146C86880B2704701617047416119
:1005100070470AB1016100E041617047C1607047F6
:100520004FF480320A43826181618261826982690B
:10053000704702460020424B18684FF680731840FF
:1005400040EA021008433E4B186070473D49C861BD
:100550007047F0B50A46002300240021002500F072
:100560000046B6F1004F02D1354EF16901E0344E3C
:100570007168C0F3034583B200F44016B6F5401F1E
:1005800008D121F070612E4E766826F070662C4FEF
:100590007E6012E000F48016B6F5801F06D10326B7
:1005A00006FA05F4A14341F0706106E0460D3601FC
:1005B00003FA06F6B14341F0706122B1460D3601EF
:1005C00003FA06F6314300F00046B6F1004F02D1BF
:1005D0001B4EF16101E01A4E7160F0BD30B5002292
:1005E0008B071C0F0F2303FA04F2154B08338C10F2
:1005F00053F824309343124C08348D1044F82530BE
:1006000023468C1053F824308C07240F00FA04F48E
:1006100023430B4C08348D1044F8253030BD0A4973
:100620000860704700080140000C014000100140C4
:100630000014014000180140001C0140002001404E
:100640000000014000002042DC002042DD4800683C
:1006500040F00100DB49086008464068DA4908407C
:10066000D849486008460068D8490840D54908601C
:100670000846006820F4802008600846406820F49E
:10068000FE0048604FF41F0088607047CD4909683C
:1006900021F48031CB4A11601146096821F4802190
:1006A0001160B0F5803F03D0B0F5802F0ED106E089
:1006B000C449096841F48031C24A116007E0C14968
:1006C000096841F4A021BF4A116000E000BF00BFEB
:1006D000704710B501460022002300204A11012A6C
:1006E00002D1B84C236806E0022A02D1B54C236A35
:1006F00001E0B44C636A01F01F02012494401C42E3
:1007000001D0012000E0002010BD38B5002000908D
:100710000024002500BF3120FFF7DBFF05460098CD
:10072000401C00900098B0F5A06F01D0002DF2D0D1
:100730003120FFF7CEFF08B1012400E0002420465D
:1007400038BD014600209F4A106820F0F80040EABA
:10075000C100106070479E49086070470246002043
:10076000984B586820F47C1042EA01031843954BDB
:100770005860704796490866704701460020914AC4
:10078000506820F003000843506070478D4840686F
:1007900000F00C007047014600208A4A506820F0A3
:1007A000F00008435060704701460020854A5068B9
:1007B00020F4E06008435060704701460020814A01
:1007C000506820F4605040EAC1005060704729B181
:1007D0007C4A527A02437B4B5A7204E0794A527A3D
:1007E0008243784B5A7270477A49086070470146D5
:1007F0000020744A506820F440400843506070471D
:100800000021754A11706F4A82F82010012802D029
:10081000042808D103E001216F4A117004E005218A
:100820006D4A117000E000BF00BF70476B4908605F
:1008300070476449096A0143624A11627047674917
:1008400044390860704730B500210022002400239D
:100850005C4D6D6805F00C0121B1042905D0082913
:1008600023D105E05E4D056022E05D4D05601FE08F
:10087000544D6D6805F47012524D6D6805F4803466
:10088000022505EB92421CB9564D554305600BE01D
:100890004C4D6D6815F4003F03D0524D5543056033
:1008A00002E04F4D5543056002E04D4D056000BF2D
:1008B00000BF444D6D6805F0F00109094A4D6B5CBD
:1008C0000568DD4045603F4D6D6805F4E061090A4B
:1008D000454D6B5C4568DD4085603A4D6D6805F4BB
:1008E0006051C90A404D6B5C4568DD40C560354DBF
:1008F0006D6805F44041890B3C4D6B5CC568B5FBE8
:10090000F3F5056130BD29B12E4A526902432D4BE2
:100910005A6104E02B4A526982432A4B5A6170475C
:1009200029B1284A92690243264B9A6104E0254A7C
:1009300092698243234B9A61704729B1214AD26957
:100940000243204BDA6104E01E4AD26982431D4B08
:10095000DA61704729B11B4AD2680243194BDA6049
:1009600004E0184AD2688243164BDA60704729B116
:10097000144A12690243134B1A6104E0114A1269C6
:100980008243104B1A617047144940390860704720
:100990000F49C86470470B49C87170470948406ADD
:1009A00040F0807007494862704701460020054AC0
:1009B00092680A4201D0012000E0002070470149FE
:1009C00088727047001002400000FFF8FFFFF6FE3B
:1009D00000004242D80042422010024080044242BD
:1009E00000127A0000093D001400002024000020BD
:1009F00010B50446FB48844209D101218803FFF762
:100A0000A9FF00214FF48040FFF7A4FF32E0F64831
:100A1000844209D101214804FFF7A9FF00214FF4C6
:100A20000030FFF7A4FF25E0F048844209D10121FE
:100A30008804FFF79CFF00214FF48020FFF797FF09
:100A400018E0EB48844209D10121C804FFF78FFF69
:100A500000214FF40020FFF78AFF0BE0E5488442B5
:100A600008D101210805FFF782FF00214FF4801013
:100A7000FFF77DFF10BD2DE9F04786B005460E4615
:100A80000024A24600BFA1460027B08900B100BFE4
:100A90002F462C8A4CF6FF700440F08804432C82C9
:100AA000AC894EF6F3100440B0883189084371894F
:100AB00008430443AC81AC8A4FF6FF400440B08940
:100AC0000443AC8201A8FFF7BEFEC648874202D1AC
:100AD000DDF810A001E0DDF80CA0A88910F4004FAB
:100AE00008D00AEBCA0000EB0A1031684900B0FBDD
:100AF000F1F807E00AEBCA0000EB0A103168890040
:100B0000B0FBF1F86420B8FBF0F004012009642187
:100B100001FB1089A88910F4004F08D0322000EBA7
:100B2000C900B0FBF1F000F00700044308E03220F8
:100B300000EB09106421B0FBF1F000F00F0004435A
:100B40002C8106B0BDE8F0874FF4165101600021FA
:100B50008180C18001810C21418100218181704708
:100B600010B502460020108A4FF2FF0318400B8890
:100B70004C8823438C882343CC882343184310821A
:100B800010BD0021018041808180C180704721B16A
:100B9000828942F40052828104E082894DF6FF731B
:100BA0001A4082817047F0B50346002400260025D4
:100BB0000020A1F510676A3F00D100BF1846C1F3BD
:100BC000421401F01F06012707FA06F5012C01D196
:100BD0000C3004E0022C01D1103000E014301AB1C6
:100BE00007682F43076002E00768AF430760F0BD66
:100BF0001AB1838A0B43838202E0838A8B43838208
:100C00007047028A4FF6F0731A400282028A0A4342
:100C10000282704782894FF2FF731A408281828973
:100C20000A438281704721B1828942F002028281A7
:100C300004E082894FF6FD731A4082817047028A70
:100C40004FF6DF731A400282028A0A43028270471B
:100C500021B1028A42F48042028204E0028A4BF609
:100C6000FF731A4002827047C1F308028280704706
:100C700001468888C0F308007047818941F001016E
:100C800081817047028BD2B20283028B42EA012239
:100C900002837047028B02F47F420283028B0A4375
:100CA0000283704721B1828A42F02002828204E0EE
:100CB000828A4FF6DF731A408282704721B1828A9E
:100CC00042F01002828204E0828A4FF6EF731A40EB
:100CD0008282704721B1828A42F00802828204E057
:100CE000828A4FF6F7731A408282704721B1828957
:100CF00042F40042828103E08289C2F30E028281C3
:100D0000704721B1828A42F40062828204E0828AC2
:100D10004FF2FF731A4082827047828A4FF6FB734C
:100D20001A408282828A0A438282704721B1828A73
:100D300042F00202828204E0828A4FF6FD731A407A
:100D40008282704702460020B1F5007F00D100BFCB
:100D500013880B4201D0012000E00020704701F40D
:100D60000072B2F5007F00D100BFCA430280704715
:100D700070B502460024002300250020A1F510666E
:100D80006A3E00D100BFC1F3421501F01F030126E6
:100D900006FA03F3012D02D19689334006E0022DB5
:100DA00002D1168A334001E0968A33400C120126A4
:100DB00006FA04F41688344013B10CB1012000E0A7
:100DC000002070BD10B500220023A1F510646A3C1C
:100DD00000D100BF0A1201249440A3B2DC43048076
:100DE00010BD0000003801400044004000480040B1
:100DF000004C004000500040704700BFFEE700BFBD
:100E0000FEE700BFFEE700BFFEE770477047704790
:100E1000704700008CB0374D00240026A14607A87B
:100E20000223142219460090334800F03BF902A82F
:100E300002231422042100902F4800F033F9FFF719
:100E4000DFF900F069F854E0204600F050FA074658
:100E50002A4A2B4B00F072FA00D82A4D204600F0A7
:100E600046FA0746284A294B00F054FA00D8284D84
:100E70002946204600F080F9044621464FF07E5076
:100E800000F0CCF98046234900F0CEF9074600F087
:100E900001FA064621461F4800F0C6F9074600F051
:100EA000F9F9814616B1B9F1000F00D121E007A888
:100EB0000999884721464FF07E5000F0AFF98246ED
:100EC000144900F0B1F9804600F0FDF987B23846C8
:100ED00000F094F807A80A99884721460D4800F0C9
:100EE000A3F9804600F0EFF987B2384600F086F8A3
:100EF00000BFA9E70AD723BC00080140AE47E17A4A
:100F000014AEEF3F6F1283BAFCA9F1D24D62503F8D
:100F10006F12833A00007A4400B585B0012188033E
:100F2000FFF7FEFC01210420FFF7FAFC012108462F
:100F3000FFF7F6FC4FF40070ADF8100003208DF8B9
:100F4000120018208DF8130004A91B48FFF732FA8D
:100F50004FF48060ADF8100004208DF8130004A950
:100F60001548FFF727FA4FF4E13000900020ADF864
:100F70000400ADF80600ADF80800ADF80C000C2038
:100F8000ADF80A0069460D48FFF775FD01210B48D1
:100F9000FFF7FDFD05B000BD70B504460D46E1B29A
:100FA0000648FFF761FE00BF80210448FFF7CAFE34
:100FB0000028F9D0204670BD0008014000380140EB
:100FC00001466FF004024FF0E0231A6142F228322A
:100FD0004A435A6100229A6101221A6100BF4FF010
:100FE000E022106910F0010F02D010F4803FF6D01B
:100FF00000224FF0E0231A619A61704701466FF0BA
:1010000004024FF0E0231A6101EB41025A61002211
:101010009A6101221A6100BF4FF0E022106910F0BE
:10102000010F02D010F4803FF6D000224FF0E023F1
:101030001A619A617047000038B504460D465CB1EC
:101040008DF80350A088ADF80000A0798DF802005B
:1010500069462068FFF7AEF938BD10B50446A1888F
:101060002068FFF752FA10BD10B50446A188206829
:10107000FFF74DFA10BD70B50446002684B1E5793E
:10108000E079142803D014212046FFF7D5FFA1886A
:101090002068FFF720FA064629462046FFF7CCFFD6
:1010A000304670BD2DE9F84304460E461746984673
:1010B000089D2C60AE8085F80680EF71AFF2650068
:1010C000A860AFF25B00E860AFF2550028612348EA
:1010D000844204D101210420FFF722FC31E02048A2
:1010E000844204D101210820FFF71AFC29E01D48A1
:1010F000844204D101211020FFF712FC21E01A489C
:10110000844204D101212020FFF70AFC19E017488E
:10111000844204D101214020FFF702FC11E0144871
:10112000844204D101218020FFF7FAFB09E0114835
:10113000844204D101218015FFF7F2FB01E0BDE8F4
:10114000F883ADF800608DF803708DF80280694671
:101150002046FFF72FF900BFF1E70000000801402B
:10116000000C014000100140001401400018014033
:10117000001C014000200140F0B480EA0102D40FBD
:101180004200B2EB410F02D20246084611464A0025
:1011900042D0C30DDDB2C1F3C752AD1A202D35DAEE
:1011A000C1F3160141F4000204B15242C5F1200618
:1011B00002FA06F12A411044B3EBD05F23D0C4B148
:1011C000012DA0EBC35009DCF0BC4FF0004202EA55
:1011D000C35200F50000DBB200F0CDB8400000F1D2
:1011E000807000EBC350A0F1807040EAD1704900DC
:1011F00009E0490841EAC071A0EBC35000F50000C6
:10120000400800EBC350F0BC00F0ACB861420122D2
:1012100002EB4101001BF6E7F0BC704781F0004192
:10122000AAE780F00040A7E780EA010210B502F0CB
:101230000043400026D04A0023D04FEA106101EB62
:101240001261C0F35600C2F3560240F4000042F4AB
:101250000002A0FB0220A1F17F014FEA004014042C
:1012600001D000F1010050EA124001D44000491EB3
:10127000C2B20C0604EBD010401C4008802A02D0F9
:1012800003E0002010BD20F00100002900DA00205A
:10129000184310BD00F0004220F00040C10DC0F323
:1012A000160040F400007F2901DA002070479629DB
:1012B00003DCC1F19601C84001E096398840002A5C
:1012C000F4D04042704720F00040C10DC0F316003A
:1012D00040F400007F2901DA00207047962903DCE2
:1012E000C1F19601C840704796398840704700F0B8
:1012F000004230F000400AD0C10D01F56071C0F32A
:10130000160042EA0151C20840071143704700200D
:101310000146704730B5002904DB4FF000444042DD
:1013200064EB0101002B04DB4FF00044524264EBFC
:1013300003038B4208BF824230BD000030B5002954
:1013400004DB4FF00044404264EB0101002B04DB5E
:101350004FF00044524264EB0303994208BF9042AD
:1013600030BD00000029A8BF7047401C490008BFDD
:1013700020F00100704710B4B0FA80FC00FA0CF0C5
:1013800050EA010404BF10BC704749B1CCF12004FD
:1013900021FA04F411FA0CF118BF0121214308438A
:1013A000A3EB0C01CB1D0106000A002BBEBF0020E1
:1013B00010BC704700EBC35010440029A4BF10BC00
:1013C0007047401C490008BF20F0010010BC704766
:1013D000064C074D06E0E06840F0010394E8070082
:1013E00098471034AC42F6D3FEF784FE141400087C
:1013F0003414000802E008C8121F08C1002AFAD1FC
:1014000070477047002001E001C1121F002AFBD184
:10141000704700003414000800000020280000007D
:10142000F41300085C1400082800002000040000E9
:101430000414000800A24A0400000000000000009C
:10144000010203040607080900000000010203046A
:0C14500001020304060708090204060854
:04000005080000ED02
:00000001FF
